{
  "_format": "hh-sol-artifact-1",
  "contractName": "BlockNewsMediaToken",
  "sourceName": "contracts/BlockNewsMediaToken.sol",
  "abi": [
    {
      "inputs": [],
      "stateMutability": "nonpayable",
      "type": "constructor"
    },
    {
      "anonymous": false,
      "inputs": [
        {
          "indexed": true,
          "internalType": "address",
          "name": "owner",
          "type": "address"
        },
        {
          "indexed": true,
          "internalType": "address",
          "name": "approved",
          "type": "address"
        },
        {
          "indexed": true,
          "internalType": "uint256",
          "name": "tokenId",
          "type": "uint256"
        }
      ],
      "name": "Approval",
      "type": "event"
    },
    {
      "anonymous": false,
      "inputs": [
        {
          "indexed": true,
          "internalType": "address",
          "name": "owner",
          "type": "address"
        },
        {
          "indexed": true,
          "internalType": "address",
          "name": "operator",
          "type": "address"
        },
        {
          "indexed": false,
          "internalType": "bool",
          "name": "approved",
          "type": "bool"
        }
      ],
      "name": "ApprovalForAll",
      "type": "event"
    },
    {
      "anonymous": false,
      "inputs": [
        {
          "indexed": false,
          "internalType": "address",
          "name": "account",
          "type": "address"
        }
      ],
      "name": "Paused",
      "type": "event"
    },
    {
      "anonymous": false,
      "inputs": [
        {
          "indexed": true,
          "internalType": "bytes32",
          "name": "role",
          "type": "bytes32"
        },
        {
          "indexed": true,
          "internalType": "bytes32",
          "name": "previousAdminRole",
          "type": "bytes32"
        },
        {
          "indexed": true,
          "internalType": "bytes32",
          "name": "newAdminRole",
          "type": "bytes32"
        }
      ],
      "name": "RoleAdminChanged",
      "type": "event"
    },
    {
      "anonymous": false,
      "inputs": [
        {
          "indexed": true,
          "internalType": "bytes32",
          "name": "role",
          "type": "bytes32"
        },
        {
          "indexed": true,
          "internalType": "address",
          "name": "account",
          "type": "address"
        },
        {
          "indexed": true,
          "internalType": "address",
          "name": "sender",
          "type": "address"
        }
      ],
      "name": "RoleGranted",
      "type": "event"
    },
    {
      "anonymous": false,
      "inputs": [
        {
          "indexed": true,
          "internalType": "bytes32",
          "name": "role",
          "type": "bytes32"
        },
        {
          "indexed": true,
          "internalType": "address",
          "name": "account",
          "type": "address"
        },
        {
          "indexed": true,
          "internalType": "address",
          "name": "sender",
          "type": "address"
        }
      ],
      "name": "RoleRevoked",
      "type": "event"
    },
    {
      "anonymous": false,
      "inputs": [
        {
          "indexed": false,
          "internalType": "address",
          "name": "_from",
          "type": "address"
        },
        {
          "indexed": false,
          "internalType": "string",
          "name": "_uri",
          "type": "string"
        }
      ],
      "name": "TokenMinted",
      "type": "event"
    },
    {
      "anonymous": false,
      "inputs": [
        {
          "indexed": true,
          "internalType": "address",
          "name": "from",
          "type": "address"
        },
        {
          "indexed": true,
          "internalType": "address",
          "name": "to",
          "type": "address"
        },
        {
          "indexed": true,
          "internalType": "uint256",
          "name": "tokenId",
          "type": "uint256"
        }
      ],
      "name": "Transfer",
      "type": "event"
    },
    {
      "anonymous": false,
      "inputs": [
        {
          "indexed": false,
          "internalType": "address",
          "name": "account",
          "type": "address"
        }
      ],
      "name": "Unpaused",
      "type": "event"
    },
    {
      "inputs": [],
      "name": "DEFAULT_ADMIN_ROLE",
      "outputs": [
        {
          "internalType": "bytes32",
          "name": "",
          "type": "bytes32"
        }
      ],
      "stateMutability": "view",
      "type": "function"
    },
    {
      "inputs": [],
      "name": "PAUSER_ROLE",
      "outputs": [
        {
          "internalType": "bytes32",
          "name": "",
          "type": "bytes32"
        }
      ],
      "stateMutability": "view",
      "type": "function"
    },
    {
      "inputs": [
        {
          "internalType": "address",
          "name": "to",
          "type": "address"
        },
        {
          "internalType": "uint256",
          "name": "tokenId",
          "type": "uint256"
        }
      ],
      "name": "approve",
      "outputs": [],
      "stateMutability": "nonpayable",
      "type": "function"
    },
    {
      "inputs": [
        {
          "internalType": "address",
          "name": "owner",
          "type": "address"
        }
      ],
      "name": "balanceOf",
      "outputs": [
        {
          "internalType": "uint256",
          "name": "",
          "type": "uint256"
        }
      ],
      "stateMutability": "view",
      "type": "function"
    },
    {
      "inputs": [
        {
          "internalType": "uint256",
          "name": "tokenId",
          "type": "uint256"
        }
      ],
      "name": "burn",
      "outputs": [],
      "stateMutability": "nonpayable",
      "type": "function"
    },
    {
      "inputs": [
        {
          "internalType": "string",
          "name": "uriOfToken",
          "type": "string"
        }
      ],
      "name": "createItem",
      "outputs": [
        {
          "internalType": "uint256",
          "name": "",
          "type": "uint256"
        }
      ],
      "stateMutability": "nonpayable",
      "type": "function"
    },
    {
      "inputs": [
        {
          "internalType": "uint256",
          "name": "tokenId",
          "type": "uint256"
        }
      ],
      "name": "destoryItem",
      "outputs": [
        {
          "internalType": "bool",
          "name": "",
          "type": "bool"
        }
      ],
      "stateMutability": "nonpayable",
      "type": "function"
    },
    {
      "inputs": [
        {
          "internalType": "uint256",
          "name": "tokenId",
          "type": "uint256"
        }
      ],
      "name": "getApproved",
      "outputs": [
        {
          "internalType": "address",
          "name": "",
          "type": "address"
        }
      ],
      "stateMutability": "view",
      "type": "function"
    },
    {
      "inputs": [
        {
          "internalType": "bytes32",
          "name": "role",
          "type": "bytes32"
        }
      ],
      "name": "getRoleAdmin",
      "outputs": [
        {
          "internalType": "bytes32",
          "name": "",
          "type": "bytes32"
        }
      ],
      "stateMutability": "view",
      "type": "function"
    },
    {
      "inputs": [
        {
          "internalType": "bytes32",
          "name": "role",
          "type": "bytes32"
        },
        {
          "internalType": "address",
          "name": "account",
          "type": "address"
        }
      ],
      "name": "grantRole",
      "outputs": [],
      "stateMutability": "nonpayable",
      "type": "function"
    },
    {
      "inputs": [
        {
          "internalType": "bytes32",
          "name": "role",
          "type": "bytes32"
        },
        {
          "internalType": "address",
          "name": "account",
          "type": "address"
        }
      ],
      "name": "hasRole",
      "outputs": [
        {
          "internalType": "bool",
          "name": "",
          "type": "bool"
        }
      ],
      "stateMutability": "view",
      "type": "function"
    },
    {
      "inputs": [
        {
          "internalType": "address",
          "name": "owner",
          "type": "address"
        },
        {
          "internalType": "address",
          "name": "operator",
          "type": "address"
        }
      ],
      "name": "isApprovedForAll",
      "outputs": [
        {
          "internalType": "bool",
          "name": "",
          "type": "bool"
        }
      ],
      "stateMutability": "view",
      "type": "function"
    },
    {
      "inputs": [
        {
          "internalType": "uint256",
          "name": "",
          "type": "uint256"
        }
      ],
      "name": "items",
      "outputs": [
        {
          "internalType": "uint256",
          "name": "id",
          "type": "uint256"
        },
        {
          "internalType": "address",
          "name": "creator",
          "type": "address"
        },
        {
          "internalType": "string",
          "name": "uri",
          "type": "string"
        }
      ],
      "stateMutability": "view",
      "type": "function"
    },
    {
      "inputs": [],
      "name": "name",
      "outputs": [
        {
          "internalType": "string",
          "name": "",
          "type": "string"
        }
      ],
      "stateMutability": "view",
      "type": "function"
    },
    {
      "inputs": [
        {
          "internalType": "uint256",
          "name": "tokenId",
          "type": "uint256"
        }
      ],
      "name": "ownerOf",
      "outputs": [
        {
          "internalType": "address",
          "name": "",
          "type": "address"
        }
      ],
      "stateMutability": "view",
      "type": "function"
    },
    {
      "inputs": [],
      "name": "pause",
      "outputs": [],
      "stateMutability": "nonpayable",
      "type": "function"
    },
    {
      "inputs": [],
      "name": "paused",
      "outputs": [
        {
          "internalType": "bool",
          "name": "",
          "type": "bool"
        }
      ],
      "stateMutability": "view",
      "type": "function"
    },
    {
      "inputs": [
        {
          "internalType": "bytes32",
          "name": "role",
          "type": "bytes32"
        },
        {
          "internalType": "address",
          "name": "account",
          "type": "address"
        }
      ],
      "name": "renounceRole",
      "outputs": [],
      "stateMutability": "nonpayable",
      "type": "function"
    },
    {
      "inputs": [
        {
          "internalType": "bytes32",
          "name": "role",
          "type": "bytes32"
        },
        {
          "internalType": "address",
          "name": "account",
          "type": "address"
        }
      ],
      "name": "revokeRole",
      "outputs": [],
      "stateMutability": "nonpayable",
      "type": "function"
    },
    {
      "inputs": [
        {
          "internalType": "uint256",
          "name": "",
          "type": "uint256"
        },
        {
          "internalType": "uint256",
          "name": "salesPrice",
          "type": "uint256"
        }
      ],
      "name": "royaltyInfo",
      "outputs": [
        {
          "internalType": "address",
          "name": "receiver",
          "type": "address"
        },
        {
          "internalType": "uint256",
          "name": "royaltyAmount",
          "type": "uint256"
        }
      ],
      "stateMutability": "view",
      "type": "function"
    },
    {
      "inputs": [
        {
          "internalType": "address",
          "name": "from",
          "type": "address"
        },
        {
          "internalType": "address",
          "name": "to",
          "type": "address"
        },
        {
          "internalType": "uint256",
          "name": "tokenId",
          "type": "uint256"
        }
      ],
      "name": "safeTransferFrom",
      "outputs": [],
      "stateMutability": "nonpayable",
      "type": "function"
    },
    {
      "inputs": [
        {
          "internalType": "address",
          "name": "from",
          "type": "address"
        },
        {
          "internalType": "address",
          "name": "to",
          "type": "address"
        },
        {
          "internalType": "uint256",
          "name": "tokenId",
          "type": "uint256"
        },
        {
          "internalType": "bytes",
          "name": "data",
          "type": "bytes"
        }
      ],
      "name": "safeTransferFrom",
      "outputs": [],
      "stateMutability": "nonpayable",
      "type": "function"
    },
    {
      "inputs": [
        {
          "internalType": "address",
          "name": "operator",
          "type": "address"
        },
        {
          "internalType": "bool",
          "name": "approved",
          "type": "bool"
        }
      ],
      "name": "setApprovalForAll",
      "outputs": [],
      "stateMutability": "nonpayable",
      "type": "function"
    },
    {
      "inputs": [
        {
          "internalType": "address",
          "name": "recipient",
          "type": "address"
        },
        {
          "internalType": "uint256",
          "name": "value",
          "type": "uint256"
        }
      ],
      "name": "setRoyalties",
      "outputs": [],
      "stateMutability": "nonpayable",
      "type": "function"
    },
    {
      "inputs": [
        {
          "internalType": "bytes4",
          "name": "interfaceId",
          "type": "bytes4"
        }
      ],
      "name": "supportsInterface",
      "outputs": [
        {
          "internalType": "bool",
          "name": "",
          "type": "bool"
        }
      ],
      "stateMutability": "view",
      "type": "function"
    },
    {
      "inputs": [],
      "name": "symbol",
      "outputs": [
        {
          "internalType": "string",
          "name": "",
          "type": "string"
        }
      ],
      "stateMutability": "view",
      "type": "function"
    },
    {
      "inputs": [
        {
          "internalType": "uint256",
          "name": "tokenId",
          "type": "uint256"
        }
      ],
      "name": "tokenURI",
      "outputs": [
        {
          "internalType": "string",
          "name": "",
          "type": "string"
        }
      ],
      "stateMutability": "view",
      "type": "function"
    },
    {
      "inputs": [
        {
          "internalType": "address",
          "name": "from",
          "type": "address"
        },
        {
          "internalType": "address",
          "name": "to",
          "type": "address"
        },
        {
          "internalType": "uint256",
          "name": "tokenId",
          "type": "uint256"
        }
      ],
      "name": "transferFrom",
      "outputs": [],
      "stateMutability": "nonpayable",
      "type": "function"
    },
    {
      "inputs": [],
      "name": "unpause",
      "outputs": [],
      "stateMutability": "nonpayable",
      "type": "function"
    }
  ],
  "bytecode": "0x60806040523480156200001157600080fd5b506040518060400160405280600e81526020017f426c6f636b4e6577734d656469610000000000000000000000000000000000008152506040518060400160405280600381526020017f424e4d000000000000000000000000000000000000000000000000000000000081525081600090816200008f9190620005ff565b508060019081620000a19190620005ff565b5050506000600760006101000a81548160ff021916908315150217905550620000d46000801b336200013360201b60201c565b620001067f65d7a28e3265b37a6474929f336521b332c1681b933f6cb9f3376673440d862a336200013360201b60201c565b6200012d7345b58919a70bfda15d4bb0a8df752a671a318d7e60af6200022560201b60201c565b62000769565b6200014582826200031260201b60201c565b620002215760016008600084815260200190815260200160002060000160008373ffffffffffffffffffffffffffffffffffffffff1673ffffffffffffffffffffffffffffffffffffffff16815260200190815260200160002060006101000a81548160ff021916908315150217905550620001c66200037d60201b60201c565b73ffffffffffffffffffffffffffffffffffffffff168173ffffffffffffffffffffffffffffffffffffffff16837f2f8788117e7eff1d82e926ec794901d17c78024a50270940304540a733656f0d60405160405180910390a45b5050565b6127108111156200026d576040517f08c379a0000000000000000000000000000000000000000000000000000000008152600401620002649062000747565b60405180910390fd5b60405180604001604052808373ffffffffffffffffffffffffffffffffffffffff1681526020018262ffffff16815250600b60008201518160000160006101000a81548173ffffffffffffffffffffffffffffffffffffffff021916908373ffffffffffffffffffffffffffffffffffffffff16021790555060208201518160000160146101000a81548162ffffff021916908362ffffff1602179055509050505050565b60006008600084815260200190815260200160002060000160008373ffffffffffffffffffffffffffffffffffffffff1673ffffffffffffffffffffffffffffffffffffffff16815260200190815260200160002060009054906101000a900460ff16905092915050565b600033905090565b600081519050919050565b7f4e487b7100000000000000000000000000000000000000000000000000000000600052604160045260246000fd5b7f4e487b7100000000000000000000000000000000000000000000000000000000600052602260045260246000fd5b600060028204905060018216806200040757607f821691505b6020821081036200041d576200041c620003bf565b5b50919050565b60008190508160005260206000209050919050565b60006020601f8301049050919050565b600082821b905092915050565b600060088302620004877fffffffffffffffffffffffffffffffffffffffffffffffffffffffffffffffff8262000448565b62000493868362000448565b95508019841693508086168417925050509392505050565b6000819050919050565b6000819050919050565b6000620004e0620004da620004d484620004ab565b620004b5565b620004ab565b9050919050565b6000819050919050565b620004fc83620004bf565b620005146200050b82620004e7565b84845462000455565b825550505050565b600090565b6200052b6200051c565b62000538818484620004f1565b505050565b5b8181101562000560576200055460008262000521565b6001810190506200053e565b5050565b601f821115620005af57620005798162000423565b620005848462000438565b8101602085101562000594578190505b620005ac620005a38562000438565b8301826200053d565b50505b505050565b600082821c905092915050565b6000620005d460001984600802620005b4565b1980831691505092915050565b6000620005ef8383620005c1565b9150826002028217905092915050565b6200060a8262000385565b67ffffffffffffffff81111562000626576200062562000390565b5b620006328254620003ee565b6200063f82828562000564565b600060209050601f83116001811462000677576000841562000662578287015190505b6200066e8582620005e1565b865550620006de565b601f198416620006878662000423565b60005b82811015620006b1578489015182556001820191506020850194506020810190506200068a565b86831015620006d15784890151620006cd601f891682620005c1565b8355505b6001600288020188555050505b505050505050565b600082825260208201905092915050565b7f45524332393831526f79616c746965733a20546f6f2068696768000000000000600082015250565b60006200072f601a83620006e6565b91506200073c82620006f7565b602082019050919050565b60006020820190508181036000830152620007628162000720565b9050919050565b61446b80620007796000396000f3fe608060405234801561001057600080fd5b50600436106101cf5760003560e01c80636352211e11610104578063a22cb465116100a2578063d547741f11610071578063d547741f1461053f578063e63ab1e91461055b578063e985e9c514610579578063e9f3d5a7146105a9576101cf565b8063a22cb465146104a5578063b88d4fde146104c1578063bfb231d2146104dd578063c87b56dd1461050f576101cf565b80638c7ea24b116100de5780638c7ea24b1461041d57806391d148541461043957806395d89b4114610469578063a217fddf14610487576101cf565b80636352211e146103b357806370a08231146103e35780638456cb5914610413576101cf565b80632f2ff15d116101715780633f4ba83a1161014b5780633f4ba83a1461035357806342842e0e1461035d57806342966c68146103795780635c975abb14610395576101cf565b80632f2ff15d146102eb57806336568abe146103075780633d54eebb14610323576101cf565b8063095ea7b3116101ad578063095ea7b31461025257806323b872dd1461026e578063248a9ca31461028a5780632a55205a146102ba576101cf565b806301ffc9a7146101d457806306fdde0314610204578063081812fc14610222575b600080fd5b6101ee60048036038101906101e99190612b24565b6105d9565b6040516101fb9190612b6c565b60405180910390f35b61020c610653565b6040516102199190612c17565b60405180910390f35b61023c60048036038101906102379190612c6f565b6106e5565b6040516102499190612cdd565b60405180910390f35b61026c60048036038101906102679190612d24565b61072b565b005b61028860048036038101906102839190612d64565b610842565b005b6102a4600480360381019061029f9190612ded565b6108a2565b6040516102b19190612e29565b60405180910390f35b6102d460048036038101906102cf9190612e44565b6108c2565b6040516102e2929190612e93565b60405180910390f35b61030560048036038101906103009190612ebc565b610982565b005b610321600480360381019061031c9190612ebc565b6109a3565b005b61033d60048036038101906103389190613031565b610a26565b60405161034a919061307a565b60405180910390f35b61035b610b90565b005b61037760048036038101906103729190612d64565b610bc5565b005b610393600480360381019061038e9190612c6f565b610be5565b005b61039d610c41565b6040516103aa9190612b6c565b60405180910390f35b6103cd60048036038101906103c89190612c6f565b610c58565b6040516103da9190612cdd565b60405180910390f35b6103fd60048036038101906103f89190613095565b610d09565b60405161040a919061307a565b60405180910390f35b61041b610dc0565b005b61043760048036038101906104329190612d24565b610df5565b005b610453600480360381019061044e9190612ebc565b610e11565b6040516104609190612b6c565b60405180910390f35b610471610e7c565b60405161047e9190612c17565b60405180910390f35b61048f610f0e565b60405161049c9190612e29565b60405180910390f35b6104bf60048036038101906104ba91906130ee565b610f15565b005b6104db60048036038101906104d691906131cf565b610f2b565b005b6104f760048036038101906104f29190612c6f565b610f8d565b60405161050693929190613252565b60405180910390f35b61052960048036038101906105249190612c6f565b61105f565b6040516105369190612c17565b60405180910390f35b61055960048036038101906105549190612ebc565b6110b9565b005b6105636110da565b6040516105709190612e29565b60405180910390f35b610593600480360381019061058e9190613290565b6110fe565b6040516105a09190612b6c565b60405180910390f35b6105c360048036038101906105be9190612c6f565b611192565b6040516105d09190612b6c565b60405180910390f35b60007f2a55205a000000000000000000000000000000000000000000000000000000007bffffffffffffffffffffffffffffffffffffffffffffffffffffffff1916827bffffffffffffffffffffffffffffffffffffffffffffffffffffffff1916148061064c575061064b8261124b565b5b9050919050565b606060008054610662906132ff565b80601f016020809104026020016040519081016040528092919081815260200182805461068e906132ff565b80156106db5780601f106106b0576101008083540402835291602001916106db565b820191906000526020600020905b8154815290600101906020018083116106be57829003601f168201915b5050505050905090565b60006106f0826112c5565b6004600083815260200190815260200160002060009054906101000a900473ffffffffffffffffffffffffffffffffffffffff169050919050565b600061073682610c58565b90508073ffffffffffffffffffffffffffffffffffffffff168373ffffffffffffffffffffffffffffffffffffffff16036107a6576040517f08c379a000000000000000000000000000000000000000000000000000000000815260040161079d906133a2565b60405180910390fd5b8073ffffffffffffffffffffffffffffffffffffffff166107c5611310565b73ffffffffffffffffffffffffffffffffffffffff1614806107f457506107f3816107ee611310565b6110fe565b5b610833576040517f08c379a000000000000000000000000000000000000000000000000000000000815260040161082a90613434565b60405180910390fd5b61083d8383611318565b505050565b61085361084d611310565b826113d1565b610892576040517f08c379a0000000000000000000000000000000000000000000000000000000008152600401610889906134c6565b60405180910390fd5b61089d838383611466565b505050565b600060086000838152602001908152602001600020600101549050919050565b6000806000600b6040518060400160405290816000820160009054906101000a900473ffffffffffffffffffffffffffffffffffffffff1673ffffffffffffffffffffffffffffffffffffffff1673ffffffffffffffffffffffffffffffffffffffff1681526020016000820160149054906101000a900462ffffff1662ffffff1662ffffff1681525050905080600001519250612710816020015162ffffff168561096e9190613515565b6109789190613586565b9150509250929050565b61098b826108a2565b610994816116cc565b61099e83836116e0565b505050565b6109ab611310565b73ffffffffffffffffffffffffffffffffffffffff168173ffffffffffffffffffffffffffffffffffffffff1614610a18576040517f08c379a0000000000000000000000000000000000000000000000000000000008152600401610a0f90613629565b60405180910390fd5b610a2282826117c1565b5050565b6000610a306118a3565b6000825111610a74576040517f08c379a0000000000000000000000000000000000000000000000000000000008152600401610a6b906136bb565b60405180910390fd5b610a7e600a6118ed565b6000610a8a600a611903565b9050610a963382611911565b60405180606001604052808281526020013373ffffffffffffffffffffffffffffffffffffffff16815260200184815250600960008381526020019081526020016000206000820151816000015560208201518160010160006101000a81548173ffffffffffffffffffffffffffffffffffffffff021916908373ffffffffffffffffffffffffffffffffffffffff1602179055506040820151816002019081610b409190613887565b50905050610b4e818461192f565b7fb1fdd3f41eb81d0019cfe7749e6ad19e36fd3652c4ee0be5533ddbab487f1e023384604051610b7f929190613959565b60405180910390a180915050919050565b7f65d7a28e3265b37a6474929f336521b332c1681b933f6cb9f3376673440d862a610bba816116cc565b610bc261199c565b50565b610be083838360405180602001604052806000815250610f2b565b505050565b610bf6610bf0611310565b826113d1565b610c35576040517f08c379a0000000000000000000000000000000000000000000000000000000008152600401610c2c906134c6565b60405180910390fd5b610c3e816119ff565b50565b6000600760009054906101000a900460ff16905090565b6000806002600084815260200190815260200160002060009054906101000a900473ffffffffffffffffffffffffffffffffffffffff169050600073ffffffffffffffffffffffffffffffffffffffff168173ffffffffffffffffffffffffffffffffffffffff1603610d00576040517f08c379a0000000000000000000000000000000000000000000000000000000008152600401610cf7906139d5565b60405180910390fd5b80915050919050565b60008073ffffffffffffffffffffffffffffffffffffffff168273ffffffffffffffffffffffffffffffffffffffff1603610d79576040517f08c379a0000000000000000000000000000000000000000000000000000000008152600401610d7090613a67565b60405180910390fd5b600360008373ffffffffffffffffffffffffffffffffffffffff1673ffffffffffffffffffffffffffffffffffffffff168152602001908152602001600020549050919050565b7f65d7a28e3265b37a6474929f336521b332c1681b933f6cb9f3376673440d862a610dea816116cc565b610df2611a0b565b50565b6000801b610e02816116cc565b610e0c8383611a6e565b505050565b60006008600084815260200190815260200160002060000160008373ffffffffffffffffffffffffffffffffffffffff1673ffffffffffffffffffffffffffffffffffffffff16815260200190815260200160002060009054906101000a900460ff16905092915050565b606060018054610e8b906132ff565b80601f0160208091040260200160405190810160405280929190818152602001828054610eb7906132ff565b8015610f045780601f10610ed957610100808354040283529160200191610f04565b820191906000526020600020905b815481529060010190602001808311610ee757829003601f168201915b5050505050905090565b6000801b81565b610f27610f20611310565b8383611b58565b5050565b610f3c610f36611310565b836113d1565b610f7b576040517f08c379a0000000000000000000000000000000000000000000000000000000008152600401610f72906134c6565b60405180910390fd5b610f8784848484611cc4565b50505050565b60096020528060005260406000206000915090508060000154908060010160009054906101000a900473ffffffffffffffffffffffffffffffffffffffff1690806002018054610fdc906132ff565b80601f0160208091040260200160405190810160405280929190818152602001828054611008906132ff565b80156110555780601f1061102a57610100808354040283529160200191611055565b820191906000526020600020905b81548152906001019060200180831161103857829003601f168201915b5050505050905083565b606061106a82611d20565b6110a9576040517f08c379a00000000000000000000000000000000000000000000000000000000081526004016110a090613af9565b60405180910390fd5b6110b282611d8c565b9050919050565b6110c2826108a2565b6110cb816116cc565b6110d583836117c1565b505050565b7f65d7a28e3265b37a6474929f336521b332c1681b933f6cb9f3376673440d862a81565b6000600560008473ffffffffffffffffffffffffffffffffffffffff1673ffffffffffffffffffffffffffffffffffffffff16815260200190815260200160002060008373ffffffffffffffffffffffffffffffffffffffff1673ffffffffffffffffffffffffffffffffffffffff16815260200190815260200160002060009054906101000a900460ff16905092915050565b600061119c6118a3565b6111a582611d20565b6111e4576040517f08c379a00000000000000000000000000000000000000000000000000000000081526004016111db90613b8b565b60405180910390fd5b600960008381526020019081526020016000206000808201600090556001820160006101000a81549073ffffffffffffffffffffffffffffffffffffffff02191690556002820160006112379190612a5b565b505061124282610be5565b60019050919050565b60007f7965db0b000000000000000000000000000000000000000000000000000000007bffffffffffffffffffffffffffffffffffffffffffffffffffffffff1916827bffffffffffffffffffffffffffffffffffffffffffffffffffffffff191614806112be57506112bd82611e9e565b5b9050919050565b6112ce81611d20565b61130d576040517f08c379a0000000000000000000000000000000000000000000000000000000008152600401611304906139d5565b60405180910390fd5b50565b600033905090565b816004600083815260200190815260200160002060006101000a81548173ffffffffffffffffffffffffffffffffffffffff021916908373ffffffffffffffffffffffffffffffffffffffff160217905550808273ffffffffffffffffffffffffffffffffffffffff1661138b83610c58565b73ffffffffffffffffffffffffffffffffffffffff167f8c5be1e5ebec7d5bd14f71427d1e84f3dd0314c0f7b2291e5b200ac8c7c3b92560405160405180910390a45050565b6000806113dd83610c58565b90508073ffffffffffffffffffffffffffffffffffffffff168473ffffffffffffffffffffffffffffffffffffffff16148061141f575061141e81856110fe565b5b8061145d57508373ffffffffffffffffffffffffffffffffffffffff16611445846106e5565b73ffffffffffffffffffffffffffffffffffffffff16145b91505092915050565b8273ffffffffffffffffffffffffffffffffffffffff1661148682610c58565b73ffffffffffffffffffffffffffffffffffffffff16146114dc576040517f08c379a00000000000000000000000000000000000000000000000000000000081526004016114d390613c1d565b60405180910390fd5b600073ffffffffffffffffffffffffffffffffffffffff168273ffffffffffffffffffffffffffffffffffffffff160361154b576040517f08c379a000000000000000000000000000000000000000000000000000000000815260040161154290613caf565b60405180910390fd5b611556838383611f80565b611561600082611318565b6001600360008573ffffffffffffffffffffffffffffffffffffffff1673ffffffffffffffffffffffffffffffffffffffff16815260200190815260200160002060008282546115b19190613ccf565b925050819055506001600360008473ffffffffffffffffffffffffffffffffffffffff1673ffffffffffffffffffffffffffffffffffffffff16815260200190815260200160002060008282546116089190613d03565b92505081905550816002600083815260200190815260200160002060006101000a81548173ffffffffffffffffffffffffffffffffffffffff021916908373ffffffffffffffffffffffffffffffffffffffff160217905550808273ffffffffffffffffffffffffffffffffffffffff168473ffffffffffffffffffffffffffffffffffffffff167fddf252ad1be2c89b69c2b068fc378daa952ba7f163c4a11628f55a4df523b3ef60405160405180910390a46116c7838383611f98565b505050565b6116dd816116d8611310565b611f9d565b50565b6116ea8282610e11565b6117bd5760016008600084815260200190815260200160002060000160008373ffffffffffffffffffffffffffffffffffffffff1673ffffffffffffffffffffffffffffffffffffffff16815260200190815260200160002060006101000a81548160ff021916908315150217905550611762611310565b73ffffffffffffffffffffffffffffffffffffffff168173ffffffffffffffffffffffffffffffffffffffff16837f2f8788117e7eff1d82e926ec794901d17c78024a50270940304540a733656f0d60405160405180910390a45b5050565b6117cb8282610e11565b1561189f5760006008600084815260200190815260200160002060000160008373ffffffffffffffffffffffffffffffffffffffff1673ffffffffffffffffffffffffffffffffffffffff16815260200190815260200160002060006101000a81548160ff021916908315150217905550611844611310565b73ffffffffffffffffffffffffffffffffffffffff168173ffffffffffffffffffffffffffffffffffffffff16837ff6391f5c32d9c69d2a47ea670b442974b53935d1edc7fd64eb21e047a839171b60405160405180910390a45b5050565b6118ab610c41565b156118eb576040517f08c379a00000000000000000000000000000000000000000000000000000000081526004016118e290613d83565b60405180910390fd5b565b6001816000016000828254019250508190555050565b600081600001549050919050565b61192b82826040518060200160405280600081525061203a565b5050565b61193882611d20565b611977576040517f08c379a000000000000000000000000000000000000000000000000000000000815260040161196e90613e15565b60405180910390fd5b806006600084815260200190815260200160002090816119979190613887565b505050565b6119a4612095565b6000600760006101000a81548160ff0219169083151502179055507f5db9ee0a495bf2e6ff9c91a7834c1ba4fdd244a5e8aa4e537bd38aeae4b073aa6119e8611310565b6040516119f59190612cdd565b60405180910390a1565b611a08816120de565b50565b611a136118a3565b6001600760006101000a81548160ff0219169083151502179055507f62e78cea01bee320cd4e420270b5ea74000d11b0c9f74754ebdbfc544b05a258611a57611310565b604051611a649190612cdd565b60405180910390a1565b612710811115611ab3576040517f08c379a0000000000000000000000000000000000000000000000000000000008152600401611aaa90613e81565b60405180910390fd5b60405180604001604052808373ffffffffffffffffffffffffffffffffffffffff1681526020018262ffffff16815250600b60008201518160000160006101000a81548173ffffffffffffffffffffffffffffffffffffffff021916908373ffffffffffffffffffffffffffffffffffffffff16021790555060208201518160000160146101000a81548162ffffff021916908362ffffff1602179055509050505050565b8173ffffffffffffffffffffffffffffffffffffffff168373ffffffffffffffffffffffffffffffffffffffff1603611bc6576040517f08c379a0000000000000000000000000000000000000000000000000000000008152600401611bbd90613eed565b60405180910390fd5b80600560008573ffffffffffffffffffffffffffffffffffffffff1673ffffffffffffffffffffffffffffffffffffffff16815260200190815260200160002060008473ffffffffffffffffffffffffffffffffffffffff1673ffffffffffffffffffffffffffffffffffffffff16815260200190815260200160002060006101000a81548160ff0219169083151502179055508173ffffffffffffffffffffffffffffffffffffffff168373ffffffffffffffffffffffffffffffffffffffff167f17307eab39ab6107e8899845ad3d59bd9653f200f220920489ca2b5937696c3183604051611cb79190612b6c565b60405180910390a3505050565b611ccf848484611466565b611cdb84848484612131565b611d1a576040517f08c379a0000000000000000000000000000000000000000000000000000000008152600401611d1190613f7f565b60405180910390fd5b50505050565b60008073ffffffffffffffffffffffffffffffffffffffff166002600084815260200190815260200160002060009054906101000a900473ffffffffffffffffffffffffffffffffffffffff1673ffffffffffffffffffffffffffffffffffffffff1614159050919050565b6060611d97826112c5565b6000600660008481526020019081526020016000208054611db7906132ff565b80601f0160208091040260200160405190810160405280929190818152602001828054611de3906132ff565b8015611e305780601f10611e0557610100808354040283529160200191611e30565b820191906000526020600020905b815481529060010190602001808311611e1357829003601f168201915b505050505090506000611e416122b8565b90506000815103611e56578192505050611e99565b600082511115611e8b578082604051602001611e73929190613fdb565b60405160208183030381529060405292505050611e99565b611e94846122cf565b925050505b919050565b60007f80ac58cd000000000000000000000000000000000000000000000000000000007bffffffffffffffffffffffffffffffffffffffffffffffffffffffff1916827bffffffffffffffffffffffffffffffffffffffffffffffffffffffff19161480611f6957507f5b5e139f000000000000000000000000000000000000000000000000000000007bffffffffffffffffffffffffffffffffffffffffffffffffffffffff1916827bffffffffffffffffffffffffffffffffffffffffffffffffffffffff1916145b80611f795750611f7882612337565b5b9050919050565b611f886118a3565b611f938383836123a1565b505050565b505050565b611fa78282610e11565b61203657611fcc8173ffffffffffffffffffffffffffffffffffffffff1660146123a6565b611fda8360001c60206123a6565b604051602001611feb929190614097565b6040516020818303038152906040526040517f08c379a000000000000000000000000000000000000000000000000000000000815260040161202d9190612c17565b60405180910390fd5b5050565b61204483836125e2565b6120516000848484612131565b612090576040517f08c379a000000000000000000000000000000000000000000000000000000000815260040161208790613f7f565b60405180910390fd5b505050565b61209d610c41565b6120dc576040517f08c379a00000000000000000000000000000000000000000000000000000000081526004016120d39061411d565b60405180910390fd5b565b6120e7816127bb565b6000600660008381526020019081526020016000208054612107906132ff565b90501461212e5760066000828152602001908152602001600020600061212d9190612a5b565b5b50565b60006121528473ffffffffffffffffffffffffffffffffffffffff166128d8565b156122ab578373ffffffffffffffffffffffffffffffffffffffff1663150b7a0261217b611310565b8786866040518563ffffffff1660e01b815260040161219d9493929190614192565b6020604051808303816000875af19250505080156121d957506040513d601f19601f820116820180604052508101906121d691906141f3565b60015b61225b573d8060008114612209576040519150601f19603f3d011682016040523d82523d6000602084013e61220e565b606091505b506000815103612253576040517f08c379a000000000000000000000000000000000000000000000000000000000815260040161224a90613f7f565b60405180910390fd5b805181602001fd5b63150b7a0260e01b7bffffffffffffffffffffffffffffffffffffffffffffffffffffffff1916817bffffffffffffffffffffffffffffffffffffffffffffffffffffffff1916149150506122b0565b600190505b949350505050565b606060405180602001604052806000815250905090565b60606122da826112c5565b60006122e46122b8565b90506000815111612304576040518060200160405280600081525061232f565b8061230e846128fb565b60405160200161231f929190613fdb565b6040516020818303038152906040525b915050919050565b60007f01ffc9a7000000000000000000000000000000000000000000000000000000007bffffffffffffffffffffffffffffffffffffffffffffffffffffffff1916827bffffffffffffffffffffffffffffffffffffffffffffffffffffffff1916149050919050565b505050565b6060600060028360026123b99190613515565b6123c39190613d03565b67ffffffffffffffff8111156123dc576123db612f06565b5b6040519080825280601f01601f19166020018201604052801561240e5781602001600182028036833780820191505090505b5090507f30000000000000000000000000000000000000000000000000000000000000008160008151811061244657612445614220565b5b60200101907effffffffffffffffffffffffffffffffffffffffffffffffffffffffffffff1916908160001a9053507f7800000000000000000000000000000000000000000000000000000000000000816001815181106124aa576124a9614220565b5b60200101907effffffffffffffffffffffffffffffffffffffffffffffffffffffffffffff1916908160001a905350600060018460026124ea9190613515565b6124f49190613d03565b90505b6001811115612594577f3031323334353637383961626364656600000000000000000000000000000000600f86166010811061253657612535614220565b5b1a60f81b82828151811061254d5761254c614220565b5b60200101907effffffffffffffffffffffffffffffffffffffffffffffffffffffffffffff1916908160001a905350600485901c94508061258d9061424f565b90506124f7565b50600084146125d8576040517f08c379a00000000000000000000000000000000000000000000000000000000081526004016125cf906142c4565b60405180910390fd5b8091505092915050565b600073ffffffffffffffffffffffffffffffffffffffff168273ffffffffffffffffffffffffffffffffffffffff1603612651576040517f08c379a000000000000000000000000000000000000000000000000000000000815260040161264890614330565b60405180910390fd5b61265a81611d20565b1561269a576040517f08c379a00000000000000000000000000000000000000000000000000000000081526004016126919061439c565b60405180910390fd5b6126a660008383611f80565b6001600360008473ffffffffffffffffffffffffffffffffffffffff1673ffffffffffffffffffffffffffffffffffffffff16815260200190815260200160002060008282546126f69190613d03565b92505081905550816002600083815260200190815260200160002060006101000a81548173ffffffffffffffffffffffffffffffffffffffff021916908373ffffffffffffffffffffffffffffffffffffffff160217905550808273ffffffffffffffffffffffffffffffffffffffff16600073ffffffffffffffffffffffffffffffffffffffff167fddf252ad1be2c89b69c2b068fc378daa952ba7f163c4a11628f55a4df523b3ef60405160405180910390a46127b760008383611f98565b5050565b60006127c682610c58565b90506127d481600084611f80565b6127df600083611318565b6001600360008373ffffffffffffffffffffffffffffffffffffffff1673ffffffffffffffffffffffffffffffffffffffff168152602001908152602001600020600082825461282f9190613ccf565b925050819055506002600083815260200190815260200160002060006101000a81549073ffffffffffffffffffffffffffffffffffffffff021916905581600073ffffffffffffffffffffffffffffffffffffffff168273ffffffffffffffffffffffffffffffffffffffff167fddf252ad1be2c89b69c2b068fc378daa952ba7f163c4a11628f55a4df523b3ef60405160405180910390a46128d481600084611f98565b5050565b6000808273ffffffffffffffffffffffffffffffffffffffff163b119050919050565b606060008203612942576040518060400160405280600181526020017f30000000000000000000000000000000000000000000000000000000000000008152509050612a56565b600082905060005b6000821461297457808061295d906143bc565b915050600a8261296d9190613586565b915061294a565b60008167ffffffffffffffff8111156129905761298f612f06565b5b6040519080825280601f01601f1916602001820160405280156129c25781602001600182028036833780820191505090505b5090505b60008514612a4f576001826129db9190613ccf565b9150600a856129ea9190614404565b60306129f69190613d03565b60f81b818381518110612a0c57612a0b614220565b5b60200101907effffffffffffffffffffffffffffffffffffffffffffffffffffffffffffff1916908160001a905350600a85612a489190613586565b94506129c6565b8093505050505b919050565b508054612a67906132ff565b6000825580601f10612a795750612a98565b601f016020900490600052602060002090810190612a979190612a9b565b5b50565b5b80821115612ab4576000816000905550600101612a9c565b5090565b6000604051905090565b600080fd5b600080fd5b60007fffffffff0000000000000000000000000000000000000000000000000000000082169050919050565b612b0181612acc565b8114612b0c57600080fd5b50565b600081359050612b1e81612af8565b92915050565b600060208284031215612b3a57612b39612ac2565b5b6000612b4884828501612b0f565b91505092915050565b60008115159050919050565b612b6681612b51565b82525050565b6000602082019050612b816000830184612b5d565b92915050565b600081519050919050565b600082825260208201905092915050565b60005b83811015612bc1578082015181840152602081019050612ba6565b60008484015250505050565b6000601f19601f8301169050919050565b6000612be982612b87565b612bf38185612b92565b9350612c03818560208601612ba3565b612c0c81612bcd565b840191505092915050565b60006020820190508181036000830152612c318184612bde565b905092915050565b6000819050919050565b612c4c81612c39565b8114612c5757600080fd5b50565b600081359050612c6981612c43565b92915050565b600060208284031215612c8557612c84612ac2565b5b6000612c9384828501612c5a565b91505092915050565b600073ffffffffffffffffffffffffffffffffffffffff82169050919050565b6000612cc782612c9c565b9050919050565b612cd781612cbc565b82525050565b6000602082019050612cf26000830184612cce565b92915050565b612d0181612cbc565b8114612d0c57600080fd5b50565b600081359050612d1e81612cf8565b92915050565b60008060408385031215612d3b57612d3a612ac2565b5b6000612d4985828601612d0f565b9250506020612d5a85828601612c5a565b9150509250929050565b600080600060608486031215612d7d57612d7c612ac2565b5b6000612d8b86828701612d0f565b9350506020612d9c86828701612d0f565b9250506040612dad86828701612c5a565b9150509250925092565b6000819050919050565b612dca81612db7565b8114612dd557600080fd5b50565b600081359050612de781612dc1565b92915050565b600060208284031215612e0357612e02612ac2565b5b6000612e1184828501612dd8565b91505092915050565b612e2381612db7565b82525050565b6000602082019050612e3e6000830184612e1a565b92915050565b60008060408385031215612e5b57612e5a612ac2565b5b6000612e6985828601612c5a565b9250506020612e7a85828601612c5a565b9150509250929050565b612e8d81612c39565b82525050565b6000604082019050612ea86000830185612cce565b612eb56020830184612e84565b9392505050565b60008060408385031215612ed357612ed2612ac2565b5b6000612ee185828601612dd8565b9250506020612ef285828601612d0f565b9150509250929050565b600080fd5b600080fd5b7f4e487b7100000000000000000000000000000000000000000000000000000000600052604160045260246000fd5b612f3e82612bcd565b810181811067ffffffffffffffff82111715612f5d57612f5c612f06565b5b80604052505050565b6000612f70612ab8565b9050612f7c8282612f35565b919050565b600067ffffffffffffffff821115612f9c57612f9b612f06565b5b612fa582612bcd565b9050602081019050919050565b82818337600083830152505050565b6000612fd4612fcf84612f81565b612f66565b905082815260208101848484011115612ff057612fef612f01565b5b612ffb848285612fb2565b509392505050565b600082601f83011261301857613017612efc565b5b8135613028848260208601612fc1565b91505092915050565b60006020828403121561304757613046612ac2565b5b600082013567ffffffffffffffff81111561306557613064612ac7565b5b61307184828501613003565b91505092915050565b600060208201905061308f6000830184612e84565b92915050565b6000602082840312156130ab576130aa612ac2565b5b60006130b984828501612d0f565b91505092915050565b6130cb81612b51565b81146130d657600080fd5b50565b6000813590506130e8816130c2565b92915050565b6000806040838503121561310557613104612ac2565b5b600061311385828601612d0f565b9250506020613124858286016130d9565b9150509250929050565b600067ffffffffffffffff82111561314957613148612f06565b5b61315282612bcd565b9050602081019050919050565b600061317261316d8461312e565b612f66565b90508281526020810184848401111561318e5761318d612f01565b5b613199848285612fb2565b509392505050565b600082601f8301126131b6576131b5612efc565b5b81356131c684826020860161315f565b91505092915050565b600080600080608085870312156131e9576131e8612ac2565b5b60006131f787828801612d0f565b945050602061320887828801612d0f565b935050604061321987828801612c5a565b925050606085013567ffffffffffffffff81111561323a57613239612ac7565b5b613246878288016131a1565b91505092959194509250565b60006060820190506132676000830186612e84565b6132746020830185612cce565b81810360408301526132868184612bde565b9050949350505050565b600080604083850312156132a7576132a6612ac2565b5b60006132b585828601612d0f565b92505060206132c685828601612d0f565b9150509250929050565b7f4e487b7100000000000000000000000000000000000000000000000000000000600052602260045260246000fd5b6000600282049050600182168061331757607f821691505b60208210810361332a576133296132d0565b5b50919050565b7f4552433732313a20617070726f76616c20746f2063757272656e74206f776e6560008201527f7200000000000000000000000000000000000000000000000000000000000000602082015250565b600061338c602183612b92565b915061339782613330565b604082019050919050565b600060208201905081810360008301526133bb8161337f565b9050919050565b7f4552433732313a20617070726f76652063616c6c6572206973206e6f7420746f60008201527f6b656e206f776e6572206e6f7220617070726f76656420666f7220616c6c0000602082015250565b600061341e603e83612b92565b9150613429826133c2565b604082019050919050565b6000602082019050818103600083015261344d81613411565b9050919050565b7f4552433732313a2063616c6c6572206973206e6f7420746f6b656e206f776e6560008201527f72206e6f7220617070726f766564000000000000000000000000000000000000602082015250565b60006134b0602e83612b92565b91506134bb82613454565b604082019050919050565b600060208201905081810360008301526134df816134a3565b9050919050565b7f4e487b7100000000000000000000000000000000000000000000000000000000600052601160045260246000fd5b600061352082612c39565b915061352b83612c39565b925082820261353981612c39565b915082820484148315176135505761354f6134e6565b5b5092915050565b7f4e487b7100000000000000000000000000000000000000000000000000000000600052601260045260246000fd5b600061359182612c39565b915061359c83612c39565b9250826135ac576135ab613557565b5b828204905092915050565b7f416363657373436f6e74726f6c3a2063616e206f6e6c792072656e6f756e636560008201527f20726f6c657320666f722073656c660000000000000000000000000000000000602082015250565b6000613613602f83612b92565b915061361e826135b7565b604082019050919050565b6000602082019050818103600083015261364281613606565b9050919050565b7f426c6f636b4e6577734d65646961546f6b656e3a204e6f20546f6b656e20555260008201527f4920737570706c69656400000000000000000000000000000000000000000000602082015250565b60006136a5602a83612b92565b91506136b082613649565b604082019050919050565b600060208201905081810360008301526136d481613698565b9050919050565b60008190508160005260206000209050919050565b60006020601f8301049050919050565b600082821b905092915050565b60006008830261373d7fffffffffffffffffffffffffffffffffffffffffffffffffffffffffffffffff82613700565b6137478683613700565b95508019841693508086168417925050509392505050565b6000819050919050565b600061378461377f61377a84612c39565b61375f565b612c39565b9050919050565b6000819050919050565b61379e83613769565b6137b26137aa8261378b565b84845461370d565b825550505050565b600090565b6137c76137ba565b6137d2818484613795565b505050565b5b818110156137f6576137eb6000826137bf565b6001810190506137d8565b5050565b601f82111561383b5761380c816136db565b613815846136f0565b81016020851015613824578190505b613838613830856136f0565b8301826137d7565b50505b505050565b600082821c905092915050565b600061385e60001984600802613840565b1980831691505092915050565b6000613877838361384d565b9150826002028217905092915050565b61389082612b87565b67ffffffffffffffff8111156138a9576138a8612f06565b5b6138b382546132ff565b6138be8282856137fa565b600060209050601f8311600181146138f157600084156138df578287015190505b6138e9858261386b565b865550613951565b601f1984166138ff866136db565b60005b8281101561392757848901518255600182019150602085019450602081019050613902565b868310156139445784890151613940601f89168261384d565b8355505b6001600288020188555050505b505050505050565b600060408201905061396e6000830185612cce565b81810360208301526139808184612bde565b90509392505050565b7f4552433732313a20696e76616c696420746f6b656e2049440000000000000000600082015250565b60006139bf601883612b92565b91506139ca82613989565b602082019050919050565b600060208201905081810360008301526139ee816139b2565b9050919050565b7f4552433732313a2061646472657373207a65726f206973206e6f74206120766160008201527f6c6964206f776e65720000000000000000000000000000000000000000000000602082015250565b6000613a51602983612b92565b9150613a5c826139f5565b604082019050919050565b60006020820190508181036000830152613a8081613a44565b9050919050565b7f4552433732314d657461646174613a2055524920717565727920666f72206e6f60008201527f6e6578697374656e7420746f6b656e0000000000000000000000000000000000602082015250565b6000613ae3602f83612b92565b9150613aee82613a87565b604082019050919050565b60006020820190508181036000830152613b1281613ad6565b9050919050565b7f426c6f636b4e6577734d65646961546f6b656e3a204275726e20666f72206e6f60008201527f6e6578697374656e7420746f6b656e0000000000000000000000000000000000602082015250565b6000613b75602f83612b92565b9150613b8082613b19565b604082019050919050565b60006020820190508181036000830152613ba481613b68565b9050919050565b7f4552433732313a207472616e736665722066726f6d20696e636f72726563742060008201527f6f776e6572000000000000000000000000000000000000000000000000000000602082015250565b6000613c07602583612b92565b9150613c1282613bab565b604082019050919050565b60006020820190508181036000830152613c3681613bfa565b9050919050565b7f4552433732313a207472616e7366657220746f20746865207a65726f2061646460008201527f7265737300000000000000000000000000000000000000000000000000000000602082015250565b6000613c99602483612b92565b9150613ca482613c3d565b604082019050919050565b60006020820190508181036000830152613cc881613c8c565b9050919050565b6000613cda82612c39565b9150613ce583612c39565b9250828203905081811115613cfd57613cfc6134e6565b5b92915050565b6000613d0e82612c39565b9150613d1983612c39565b9250828201905080821115613d3157613d306134e6565b5b92915050565b7f5061757361626c653a2070617573656400000000000000000000000000000000600082015250565b6000613d6d601083612b92565b9150613d7882613d37565b602082019050919050565b60006020820190508181036000830152613d9c81613d60565b9050919050565b7f45524337323155524953746f726167653a2055524920736574206f66206e6f6e60008201527f6578697374656e7420746f6b656e000000000000000000000000000000000000602082015250565b6000613dff602e83612b92565b9150613e0a82613da3565b604082019050919050565b60006020820190508181036000830152613e2e81613df2565b9050919050565b7f45524332393831526f79616c746965733a20546f6f2068696768000000000000600082015250565b6000613e6b601a83612b92565b9150613e7682613e35565b602082019050919050565b60006020820190508181036000830152613e9a81613e5e565b9050919050565b7f4552433732313a20617070726f766520746f2063616c6c657200000000000000600082015250565b6000613ed7601983612b92565b9150613ee282613ea1565b602082019050919050565b60006020820190508181036000830152613f0681613eca565b9050919050565b7f4552433732313a207472616e7366657220746f206e6f6e20455243373231526560008201527f63656976657220696d706c656d656e7465720000000000000000000000000000602082015250565b6000613f69603283612b92565b9150613f7482613f0d565b604082019050919050565b60006020820190508181036000830152613f9881613f5c565b9050919050565b600081905092915050565b6000613fb582612b87565b613fbf8185613f9f565b9350613fcf818560208601612ba3565b80840191505092915050565b6000613fe78285613faa565b9150613ff38284613faa565b91508190509392505050565b7f416363657373436f6e74726f6c3a206163636f756e7420000000000000000000600082015250565b6000614035601783613f9f565b915061404082613fff565b601782019050919050565b7f206973206d697373696e6720726f6c6520000000000000000000000000000000600082015250565b6000614081601183613f9f565b915061408c8261404b565b601182019050919050565b60006140a282614028565b91506140ae8285613faa565b91506140b982614074565b91506140c58284613faa565b91508190509392505050565b7f5061757361626c653a206e6f7420706175736564000000000000000000000000600082015250565b6000614107601483612b92565b9150614112826140d1565b602082019050919050565b60006020820190508181036000830152614136816140fa565b9050919050565b600081519050919050565b600082825260208201905092915050565b60006141648261413d565b61416e8185614148565b935061417e818560208601612ba3565b61418781612bcd565b840191505092915050565b60006080820190506141a76000830187612cce565b6141b46020830186612cce565b6141c16040830185612e84565b81810360608301526141d38184614159565b905095945050505050565b6000815190506141ed81612af8565b92915050565b60006020828403121561420957614208612ac2565b5b6000614217848285016141de565b91505092915050565b7f4e487b7100000000000000000000000000000000000000000000000000000000600052603260045260246000fd5b600061425a82612c39565b91506000820361426d5761426c6134e6565b5b600182039050919050565b7f537472696e67733a20686578206c656e67746820696e73756666696369656e74600082015250565b60006142ae602083612b92565b91506142b982614278565b602082019050919050565b600060208201905081810360008301526142dd816142a1565b9050919050565b7f4552433732313a206d696e7420746f20746865207a65726f2061646472657373600082015250565b600061431a602083612b92565b9150614325826142e4565b602082019050919050565b600060208201905081810360008301526143498161430d565b9050919050565b7f4552433732313a20746f6b656e20616c7265616479206d696e74656400000000600082015250565b6000614386601c83612b92565b915061439182614350565b602082019050919050565b600060208201905081810360008301526143b581614379565b9050919050565b60006143c782612c39565b91507fffffffffffffffffffffffffffffffffffffffffffffffffffffffffffffffff82036143f9576143f86134e6565b5b600182019050919050565b600061440f82612c39565b915061441a83612c39565b92508261442a57614429613557565b5b82820690509291505056fea2646970667358221220330836816abcea79bc9e4ff77e1f2d2f6f3ba7febf3d589718200fae0bc1ddeb64736f6c63430008110033",
  "linkReferences": {},
  "deployedLinkReferences": {}
}